{
  "contractName": "GiftChallenge",
  "abi": [
    {
      "constant": false,
      "inputs": [
        {
          "name": "_servant",
          "type": "address"
        },
        {
          "name": "_link",
          "type": "string"
        }
      ],
      "name": "createToken",
      "outputs": [],
      "payable": false,
      "stateMutability": "nonpayable",
      "type": "function"
    },
    {
      "constant": true,
      "inputs": [
        {
          "name": "_link",
          "type": "string"
        }
      ],
      "name": "getOwner",
      "outputs": [
        {
          "name": "",
          "type": "address"
        }
      ],
      "payable": false,
      "stateMutability": "view",
      "type": "function"
    },
    {
      "constant": true,
      "inputs": [
        {
          "name": "_link",
          "type": "string"
        }
      ],
      "name": "getPrice",
      "outputs": [
        {
          "name": "",
          "type": "uint256"
        }
      ],
      "payable": false,
      "stateMutability": "view",
      "type": "function"
    },
    {
      "constant": false,
      "inputs": [
        {
          "name": "_link",
          "type": "string"
        }
      ],
      "name": "buyToken",
      "outputs": [],
      "payable": true,
      "stateMutability": "payable",
      "type": "function"
    },
    {
      "constant": false,
      "inputs": [
        {
          "name": "receiver",
          "type": "address"
        }
      ],
      "name": "test",
      "outputs": [],
      "payable": false,
      "stateMutability": "nonpayable",
      "type": "function"
    },
    {
      "constant": true,
      "inputs": [
        {
          "name": "_link",
          "type": "string"
        }
      ],
      "name": "getToken",
      "outputs": [
        {
          "name": "",
          "type": "uint256"
        }
      ],
      "payable": false,
      "stateMutability": "view",
      "type": "function"
    },
    {
      "constant": true,
      "inputs": [
        {
          "name": "_link",
          "type": "string"
        }
      ],
      "name": "getServant",
      "outputs": [
        {
          "name": "",
          "type": "address"
        }
      ],
      "payable": false,
      "stateMutability": "view",
      "type": "function"
    },
    {
      "constant": true,
      "inputs": [],
      "name": "token",
      "outputs": [
        {
          "name": "",
          "type": "address"
        }
      ],
      "payable": false,
      "stateMutability": "view",
      "type": "function"
    },
    {
      "inputs": [],
      "payable": false,
      "stateMutability": "nonpayable",
      "type": "constructor"
    },
    {
      "payable": true,
      "stateMutability": "payable",
      "type": "fallback"
    },
    {
      "anonymous": false,
      "inputs": [
        {
          "indexed": true,
          "name": "_servant",
          "type": "address"
        },
        {
          "indexed": false,
          "name": "_link",
          "type": "string"
        },
        {
          "indexed": true,
          "name": "_token",
          "type": "uint256"
        }
      ],
      "name": "TokenCreated",
      "type": "event"
    },
    {
      "anonymous": false,
      "inputs": [
        {
          "indexed": true,
          "name": "_token",
          "type": "uint256"
        },
        {
          "indexed": true,
          "name": "_previousOwner",
          "type": "address"
        },
        {
          "indexed": true,
          "name": "_newOwner",
          "type": "address"
        },
        {
          "indexed": false,
          "name": "_previousPrice",
          "type": "uint256"
        },
        {
          "indexed": false,
          "name": "_newPrice",
          "type": "uint256"
        }
      ],
      "name": "TokenBought",
      "type": "event"
    }
  ],
  "bytecode": "0x6060604052341561000f57600080fd5b61002a61006f64010000000002610ff5176401000000009004565b600160006101000a81548173ffffffffffffffffffffffffffffffffffffffff021916908373ffffffffffffffffffffffffffffffffffffffff160217905550610119565b6000610079610109565b808060200180602001838103835260148152602001807f47696674204368616c6c656e676520546f6b656e000000000000000000000000815250602001838103825260048152602001807f474946540000000000000000000000000000000000000000000000000000000081525060200192505050604051809103906000f080151561010457600080fd5b905090565b604051611a8c80612c7f83390190565b612b57806101286000396000f30060606040526004361061008e576000357c0100000000000000000000000000000000000000000000000000000000900463ffffffff16806301382807146100935780634aaf4a121461010f578063524f3889146101ac57806365d0dfc41461021d578063bb29998e14610240578063c1733f6814610279578063e5fcab03146102ea578063fc0c546a14610387575b600080fd5b341561009e57600080fd5b61010d600480803573ffffffffffffffffffffffffffffffffffffffff1690602001909190803590602001908201803590602001908080601f016020809104026020016040519081016040528093929190818152602001838380828437820191505050505050919050506103dc565b005b341561011a57600080fd5b61016a600480803590602001908201803590602001908080601f01602080910402602001604051908101604052809392919081815260200183838082843782019150505050505091905050610737565b604051808273ffffffffffffffffffffffffffffffffffffffff1673ffffffffffffffffffffffffffffffffffffffff16815260200191505060405180910390f35b34156101b757600080fd5b610207600480803590602001908201803590602001908080601f0160208091040260200160405190810160405280939291908181526020018383808284378201915050505050509190505061086c565b6040518082815260200191505060405180910390f35b61023e600480803590602001908201803590602001919091929050506108e3565b005b341561024b57600080fd5b610277600480803573ffffffffffffffffffffffffffffffffffffffff16906020019091905050610d7c565b005b341561028457600080fd5b6102d4600480803590602001908201803590602001908080601f01602080910402602001604051908101604052809392919081815260200183838082843782019150505050505091905050610d7f565b6040518082815260200191505060405180910390f35b34156102f557600080fd5b610345600480803590602001908201803590602001908080601f01602080910402602001604051908101604052809392919081815260200183838082843782019150505050505091905050610df6565b604051808273ffffffffffffffffffffffffffffffffffffffff1673ffffffffffffffffffffffffffffffffffffffff16815260200191505060405180910390f35b341561039257600080fd5b61039a610e8d565b604051808273ffffffffffffffffffffffffffffffffffffffff1673ffffffffffffffffffffffffffffffffffffffff16815260200191505060405180910390f35b600080600073ffffffffffffffffffffffffffffffffffffffff168473ffffffffffffffffffffffffffffffffffffffff161415151561041b57600080fd5b6000836040518082805190602001908083835b602083101515610453578051825260208201915060208101905060208303925061042e565b6001836020036101000a03801982511681845116808217855250505050505090500191505090815260200160405180910390209150600015158260000160009054906101000a900460ff1615151415156104ac57600080fd5b600160009054906101000a900473ffffffffffffffffffffffffffffffffffffffff1673ffffffffffffffffffffffffffffffffffffffff1663d0def52185856000604051602001526040518363ffffffff167c0100000000000000000000000000000000000000000000000000000000028152600401808373ffffffffffffffffffffffffffffffffffffffff1673ffffffffffffffffffffffffffffffffffffffff16815260200180602001828103825283818151815260200191508051906020019080838360005b83811015610592578082015181840152602081019050610577565b50505050905090810190601f1680156105bf5780820380516001836020036101000a031916815260200191505b509350505050602060405180830381600087803b15156105de57600080fd5b6102c65a03f115156105ef57600080fd5b5050506040518051905090508082600301819055508282600101908051906020019061061c929190610eee565b50838260020160006101000a81548173ffffffffffffffffffffffffffffffffffffffff021916908373ffffffffffffffffffffffffffffffffffffffff16021790555060018260000160006101000a81548160ff021916908315150217905550808473ffffffffffffffffffffffffffffffffffffffff167f245219c91d644a43a38d1479b1e5a7cc4b5c371d7049bff40dfd12c136c4e72a856040518080602001828103825283818151815260200191508051906020019080838360005b838110156106f75780820151818401526020810190506106dc565b50505050905090810190601f1680156107245780820380516001836020036101000a031916815260200191505b509250505060405180910390a350505050565b600080600080846040518082805190602001908083835b602083101515610773578051825260208201915060208101905060208303925061074e565b6001836020036101000a0380198251168184511680821785525050505050509050019150509081526020016040518091039020600301549150600160009054906101000a900473ffffffffffffffffffffffffffffffffffffffff1673ffffffffffffffffffffffffffffffffffffffff16636352211e836000604051602001526040518263ffffffff167c010000000000000000000000000000000000000000000000000000000002815260040180828152602001915050602060405180830381600087803b151561084557600080fd5b6102c65a03f1151561085657600080fd5b5050506040518051905090508092505050919050565b600080826040518082805190602001908083835b6020831015156108a55780518252602082019150602081019050602083039250610880565b6001836020036101000a0380198251168184511680821785525050505050509050019150509081526020016040518091039020600401549050919050565b6108eb610f6e565b600080600080868660405180838380828437820191505092505050908152602001604051809103902060a060405190810160405290816000820160009054906101000a900460ff16151515158152602001600182018054600181600116156101000203166002900480601f0160208091040260200160405190810160405280929190818152602001828054600181600116156101000203166002900480156109d45780601f106109a9576101008083540402835291602001916109d4565b820191906000526020600020905b8154815290600101906020018083116109b757829003601f168201915b505050505081526020016002820160009054906101000a900473ffffffffffffffffffffffffffffffffffffffff1673ffffffffffffffffffffffffffffffffffffffff1673ffffffffffffffffffffffffffffffffffffffff168152602001600382015481526020016004820154815250509350610a6160028560800151610eb390919063ffffffff16565b3410151515610a6f57600080fd5b600160009054906101000a900473ffffffffffffffffffffffffffffffffffffffff1673ffffffffffffffffffffffffffffffffffffffff16636352211e85606001516000604051602001526040518263ffffffff167c010000000000000000000000000000000000000000000000000000000002815260040180828152602001915050602060405180830381600087803b1515610b0c57600080fd5b6102c65a03f11515610b1d57600080fd5b50505060405180519050925083604001519150600234811515610b3c57fe5b0490508273ffffffffffffffffffffffffffffffffffffffff166108fc829081150290604051600060405180830381858888f193505050501515610b7f57600080fd5b8173ffffffffffffffffffffffffffffffffffffffff166108fc8234039081150290604051600060405180830381858888f193505050501515610bc157600080fd5b600160009054906101000a900473ffffffffffffffffffffffffffffffffffffffff1673ffffffffffffffffffffffffffffffffffffffff166333bebb77843387606001516040518463ffffffff167c0100000000000000000000000000000000000000000000000000000000028152600401808473ffffffffffffffffffffffffffffffffffffffff1673ffffffffffffffffffffffffffffffffffffffff1681526020018373ffffffffffffffffffffffffffffffffffffffff1673ffffffffffffffffffffffffffffffffffffffff1681526020018281526020019350505050600060405180830381600087803b1515610cbd57600080fd5b6102c65a03f11515610cce57600080fd5b5050503460008787604051808383808284378201915050925050509081526020016040518091039020600401819055503373ffffffffffffffffffffffffffffffffffffffff168373ffffffffffffffffffffffffffffffffffffffff1685606001517fe4e1b516d0ee263def78c6ef1bf60911401cce7746bd120a790ca2faf24971ea876080015134604051808381526020018281526020019250505060405180910390a4505050505050565b50565b600080826040518082805190602001908083835b602083101515610db85780518252602082019150602081019050602083039250610d93565b6001836020036101000a0380198251168184511680821785525050505050509050019150509081526020016040518091039020600301549050919050565b600080826040518082805190602001908083835b602083101515610e2f5780518252602082019150602081019050602083039250610e0a565b6001836020036101000a038019825116818451168082178552505050505050905001915050908152602001604051809103902060020160009054906101000a900473ffffffffffffffffffffffffffffffffffffffff169050919050565b600160009054906101000a900473ffffffffffffffffffffffffffffffffffffffff1681565b6000806000841415610ec85760009150610ee7565b8284029050828482811515610ed957fe5b04141515610ee357fe5b8091505b5092915050565b828054600181600116156101000203166002900490600052602060002090601f016020900481019282601f10610f2f57805160ff1916838001178555610f5d565b82800160010185558215610f5d579182015b82811115610f5c578251825591602001919060010190610f41565b5b509050610f6a9190610fbc565b5090565b60a060405190810160405280600015158152602001610f8b610fe1565b8152602001600073ffffffffffffffffffffffffffffffffffffffff16815260200160008152602001600081525090565b610fde91905b80821115610fda576000816000905550600101610fc2565b5090565b90565b602060405190810160405280600081525090565b6000610fff61108f565b808060200180602001838103835260148152602001807f47696674204368616c6c656e676520546f6b656e000000000000000000000000815250602001838103825260048152602001807f474946540000000000000000000000000000000000000000000000000000000081525060200192505050604051809103906000f080151561108a57600080fd5b905090565b604051611a8c806110a0833901905600606060405234156200001057600080fd5b60405162001a8c38038062001a8c8339810160405280805182019190602001805182019190505033600860006101000a81548173ffffffffffffffffffffffffffffffffffffffff021916908373ffffffffffffffffffffffffffffffffffffffff160217905550816000908051906020019062000090929190620000b2565b508060019080519060200190620000a9929190620000b2565b50505062000161565b828054600181600116156101000203166002900490600052602060002090601f016020900481019282601f10620000f557805160ff191683800117855562000126565b8280016001018555821562000126579182015b828111156200012557825182559160200191906001019062000108565b5b50905062000135919062000139565b5090565b6200015e91905b808211156200015a57600081600090555060010162000140565b5090565b90565b61191b80620001716000396000f3006060604052600436106100fc576000357c0100000000000000000000000000000000000000000000000000000000900463ffffffff16806306fdde0314610101578063081812fc1461018f578063095ea7b3146101f25780631051db341461023457806318160ddd1461026157806323b872dd1461028a5780632f745c59146102eb57806333bebb77146103415780636352211e146103a25780636914db601461040557806370a08231146104a15780638da5cb5b146104ee57806395d89b4114610543578063a9059cbb146105d1578063af129dc214610613578063d0def5211461063c578063d63d4af0146106cc578063f2fde38b1461075a575b600080fd5b341561010c57600080fd5b610114610793565b6040518080602001828103825283818151815260200191508051906020019080838360005b83811015610154578082015181840152602081019050610139565b50505050905090810190601f1680156101815780820380516001836020036101000a031916815260200191505b509250505060405180910390f35b341561019a57600080fd5b6101b0600480803590602001909190505061083b565b604051808273ffffffffffffffffffffffffffffffffffffffff1673ffffffffffffffffffffffffffffffffffffffff16815260200191505060405180910390f35b34156101fd57600080fd5b610232600480803573ffffffffffffffffffffffffffffffffffffffff1690602001909190803590602001909190505061084d565b005b341561023f57600080fd5b6102476109fa565b604051808215151515815260200191505060405180910390f35b341561026c57600080fd5b610274610a03565b6040518082815260200191505060405180910390f35b341561029557600080fd5b6102e9600480803573ffffffffffffffffffffffffffffffffffffffff1690602001909190803573ffffffffffffffffffffffffffffffffffffffff16906020019091908035906020019091905050610a0d565b005b34156102f657600080fd5b61032b600480803573ffffffffffffffffffffffffffffffffffffffff16906020019091908035906020019091905050610bd8565b6040518082815260200191505060405180910390f35b341561034c57600080fd5b6103a0600480803573ffffffffffffffffffffffffffffffffffffffff1690602001909190803573ffffffffffffffffffffffffffffffffffffffff16906020019091908035906020019091905050610bec565b005b34156103ad57600080fd5b6103c36004808035906020019091905050610c58565b604051808273ffffffffffffffffffffffffffffffffffffffff1673ffffffffffffffffffffffffffffffffffffffff16815260200191505060405180910390f35b341561041057600080fd5b6104266004808035906020019091905050610c6a565b6040518080602001828103825283818151815260200191508051906020019080838360005b8381101561046657808201518184015260208101905061044b565b50505050905090810190601f1680156104935780820380516001836020036101000a031916815260200191505b509250505060405180910390f35b34156104ac57600080fd5b6104d8600480803573ffffffffffffffffffffffffffffffffffffffff16906020019091905050610d25565b6040518082815260200191505060405180910390f35b34156104f957600080fd5b610501610d71565b604051808273ffffffffffffffffffffffffffffffffffffffff1673ffffffffffffffffffffffffffffffffffffffff16815260200191505060405180910390f35b341561054e57600080fd5b610556610d97565b6040518080602001828103825283818151815260200191508051906020019080838360005b8381101561059657808201518184015260208101905061057b565b50505050905090810190601f1680156105c35780820380516001836020036101000a031916815260200191505b509250505060405180910390f35b34156105dc57600080fd5b610611600480803573ffffffffffffffffffffffffffffffffffffffff16906020019091908035906020019091905050610e3f565b005b341561061e57600080fd5b610626610fc7565b6040518082815260200191505060405180910390f35b341561064757600080fd5b6106b6600480803573ffffffffffffffffffffffffffffffffffffffff1690602001909190803590602001908201803590602001908080601f01602080910402602001604051908101604052809392919081815260200183838082843782019150505050505091905050610fcd565b6040518082815260200191505060405180910390f35b34156106d757600080fd5b610703600480803573ffffffffffffffffffffffffffffffffffffffff169060200190919050506110b9565b6040518080602001828103825283818151815260200191508051906020019060200280838360005b8381101561074657808201518184015260208101905061072b565b505050509050019250505060405180910390f35b341561076557600080fd5b610791600480803573ffffffffffffffffffffffffffffffffffffffff169060200190919050506110d1565b005b61079b6117ca565b60008054600181600116156101000203166002900480601f0160208091040260200160405190810160405280929190818152602001828054600181600116156101000203166002900480156108315780601f1061080657610100808354040283529160200191610831565b820191906000526020600020905b81548152906001019060200180831161081457829003601f168201915b5050505050905090565b600061084682611229565b9050919050565b80600073ffffffffffffffffffffffffffffffffffffffff1661086f82610c58565b73ffffffffffffffffffffffffffffffffffffffff161415151561089257600080fd5b61089b82610c58565b73ffffffffffffffffffffffffffffffffffffffff163373ffffffffffffffffffffffffffffffffffffffff161415156108d457600080fd5b8273ffffffffffffffffffffffffffffffffffffffff163373ffffffffffffffffffffffffffffffffffffffff161415151561090f57600080fd5b600073ffffffffffffffffffffffffffffffffffffffff1661093083611229565b73ffffffffffffffffffffffffffffffffffffffff161415806109805750600073ffffffffffffffffffffffffffffffffffffffff168373ffffffffffffffffffffffffffffffffffffffff1614155b156109f55761098f8383611266565b8273ffffffffffffffffffffffffffffffffffffffff163373ffffffffffffffffffffffffffffffffffffffff167f8c5be1e5ebec7d5bd14f71427d1e84f3dd0314c0f7b2291e5b200ac8c7c3b925846040518082815260200191505060405180910390a35b505050565b60006001905090565b6000600254905090565b80600073ffffffffffffffffffffffffffffffffffffffff16610a2f82610c58565b73ffffffffffffffffffffffffffffffffffffffff1614151515610a5257600080fd5b3373ffffffffffffffffffffffffffffffffffffffff16610a728361083b565b73ffffffffffffffffffffffffffffffffffffffff16141515610a9457600080fd5b8373ffffffffffffffffffffffffffffffffffffffff16610ab483610c58565b73ffffffffffffffffffffffffffffffffffffffff16141515610ad657600080fd5b600073ffffffffffffffffffffffffffffffffffffffff168373ffffffffffffffffffffffffffffffffffffffff1614151515610b1257600080fd5b610b1d8484846112bc565b60008473ffffffffffffffffffffffffffffffffffffffff167f8c5be1e5ebec7d5bd14f71427d1e84f3dd0314c0f7b2291e5b200ac8c7c3b925846040518082815260200191505060405180910390a38273ffffffffffffffffffffffffffffffffffffffff168473ffffffffffffffffffffffffffffffffffffffff167fddf252ad1be2c89b69c2b068fc378daa952ba7f163c4a11628f55a4df523b3ef846040518082815260200191505060405180910390a350505050565b6000610be483836112e8565b905092915050565b600860009054906101000a900473ffffffffffffffffffffffffffffffffffffffff1673ffffffffffffffffffffffffffffffffffffffff163373ffffffffffffffffffffffffffffffffffffffff16141515610c4857600080fd5b610c538383836112bc565b505050565b6000610c638261134a565b9050919050565b610c726117ca565b600560008381526020019081526020016000208054600181600116156101000203166002900480601f016020809104026020016040519081016040528092919081815260200182805460018160011615610100020316600290048015610d195780601f10610cee57610100808354040283529160200191610d19565b820191906000526020600020905b815481529060010190602001808311610cfc57829003601f168201915b50505050509050919050565b6000600660008373ffffffffffffffffffffffffffffffffffffffff1673ffffffffffffffffffffffffffffffffffffffff168152602001908152602001600020805490509050919050565b600860009054906101000a900473ffffffffffffffffffffffffffffffffffffffff1681565b610d9f6117ca565b60018054600181600116156101000203166002900480601f016020809104026020016040519081016040528092919081815260200182805460018160011615610100020316600290048015610e355780601f10610e0a57610100808354040283529160200191610e35565b820191906000526020600020905b815481529060010190602001808311610e1857829003601f168201915b5050505050905090565b80600073ffffffffffffffffffffffffffffffffffffffff16610e6182610c58565b73ffffffffffffffffffffffffffffffffffffffff1614151515610e8457600080fd5b3373ffffffffffffffffffffffffffffffffffffffff16610ea483610c58565b73ffffffffffffffffffffffffffffffffffffffff16141515610ec657600080fd5b600073ffffffffffffffffffffffffffffffffffffffff168373ffffffffffffffffffffffffffffffffffffffff1614151515610f0257600080fd5b610f0d3384846112bc565b60003373ffffffffffffffffffffffffffffffffffffffff167f8c5be1e5ebec7d5bd14f71427d1e84f3dd0314c0f7b2291e5b200ac8c7c3b925846040518082815260200191505060405180910390a38273ffffffffffffffffffffffffffffffffffffffff163373ffffffffffffffffffffffffffffffffffffffff167fddf252ad1be2c89b69c2b068fc378daa952ba7f163c4a11628f55a4df523b3ef846040518082815260200191505060405180910390a3505050565b60025481565b600080600860009054906101000a900473ffffffffffffffffffffffffffffffffffffffff1673ffffffffffffffffffffffffffffffffffffffff163373ffffffffffffffffffffffffffffffffffffffff1614151561102c57600080fd5b600254905061103b8185611387565b61104584826113dd565b61104f81846114a4565b61106560016002546114d090919063ffffffff16565b600281905550808473ffffffffffffffffffffffffffffffffffffffff167f0f6798a560793a54c3bcfe86a93cde1e73087d944c0ea20544137d412139688560405160405180910390a38091505092915050565b6110c16117de565b6110ca826114ee565b9050919050565b600860009054906101000a900473ffffffffffffffffffffffffffffffffffffffff1673ffffffffffffffffffffffffffffffffffffffff163373ffffffffffffffffffffffffffffffffffffffff1614151561112d57600080fd5b600073ffffffffffffffffffffffffffffffffffffffff168173ffffffffffffffffffffffffffffffffffffffff161415151561116957600080fd5b8073ffffffffffffffffffffffffffffffffffffffff16600860009054906101000a900473ffffffffffffffffffffffffffffffffffffffff1673ffffffffffffffffffffffffffffffffffffffff167f8be0079c531659141344cd1fd0a4f28419497f9722a3daafe3b4186f6b6457e060405160405180910390a380600860006101000a81548173ffffffffffffffffffffffffffffffffffffffff021916908373ffffffffffffffffffffffffffffffffffffffff16021790555050565b60006004600083815260200190815260200160002060009054906101000a900473ffffffffffffffffffffffffffffffffffffffff169050919050565b816004600083815260200190815260200160002060006101000a81548173ffffffffffffffffffffffffffffffffffffffff021916908373ffffffffffffffffffffffffffffffffffffffff1602179055505050565b6112c58161158b565b6112cf83826115e1565b6112d98183611387565b6112e382826113dd565b505050565b6000600660008473ffffffffffffffffffffffffffffffffffffffff1673ffffffffffffffffffffffffffffffffffffffff1681526020019081526020016000208281548110151561133657fe5b906000526020600020900154905092915050565b60006003600083815260200190815260200160002060009054906101000a900473ffffffffffffffffffffffffffffffffffffffff169050919050565b806003600084815260200190815260200160002060006101000a81548173ffffffffffffffffffffffffffffffffffffffff021916908373ffffffffffffffffffffffffffffffffffffffff1602179055505050565b600660008373ffffffffffffffffffffffffffffffffffffffff1673ffffffffffffffffffffffffffffffffffffffff168152602001908152602001600020805480600101828161142e91906117f2565b9160005260206000209001600083909190915055506001600660008473ffffffffffffffffffffffffffffffffffffffff1673ffffffffffffffffffffffffffffffffffffffff168152602001908152602001600020805490500360076000838152602001908152602001600020819055505050565b806005600084815260200190815260200160002090805190602001906114cb92919061181e565b505050565b60008082840190508381101515156114e457fe5b8091505092915050565b6114f66117de565b600660008373ffffffffffffffffffffffffffffffffffffffff1673ffffffffffffffffffffffffffffffffffffffff16815260200190815260200160002080548060200260200160405190810160405280929190818152602001828054801561157f57602002820191906000526020600020905b81548152602001906001019080831161156b575b50505050509050919050565b60006004600083815260200190815260200160002060006101000a81548173ffffffffffffffffffffffffffffffffffffffff021916908373ffffffffffffffffffffffffffffffffffffffff16021790555050565b6000806000600660008673ffffffffffffffffffffffffffffffffffffffff1673ffffffffffffffffffffffffffffffffffffffff16815260200190815260200160002080549050925060076000858152602001908152602001600020549150600660008673ffffffffffffffffffffffffffffffffffffffff1673ffffffffffffffffffffffffffffffffffffffff1681526020019081526020016000206001840381548110151561169057fe5b906000526020600020900154905080600660008773ffffffffffffffffffffffffffffffffffffffff1673ffffffffffffffffffffffffffffffffffffffff168152602001908152602001600020838154811015156116eb57fe5b906000526020600020900181905550816007600083815260200190815260200160002081905550600660008673ffffffffffffffffffffffffffffffffffffffff1673ffffffffffffffffffffffffffffffffffffffff1681526020019081526020016000206001840381548110151561176157fe5b906000526020600020900160009055600660008673ffffffffffffffffffffffffffffffffffffffff1673ffffffffffffffffffffffffffffffffffffffff1681526020019081526020016000208054809190600190036117c2919061189e565b505050505050565b602060405190810160405280600081525090565b602060405190810160405280600081525090565b8154818355818115116118195781836000526020600020918201910161181891906118ca565b5b505050565b828054600181600116156101000203166002900490600052602060002090601f016020900481019282601f1061185f57805160ff191683800117855561188d565b8280016001018555821561188d579182015b8281111561188c578251825591602001919060010190611871565b5b50905061189a91906118ca565b5090565b8154818355818115116118c5578183600052602060002091820191016118c491906118ca565b5b505050565b6118ec91905b808211156118e85760008160009055506001016118d0565b5090565b905600a165627a7a723058206c8ac49e1d0e29373c4586700a16b3e039a2db2cba3788391a9c99fa14edf1ed0029a165627a7a72305820d70949d9b9bb5a01774a8d4b03591ee66d5f7e37ceb06f462652b9c2662aff170029606060405234156200001057600080fd5b60405162001a8c38038062001a8c8339810160405280805182019190602001805182019190505033600860006101000a81548173ffffffffffffffffffffffffffffffffffffffff021916908373ffffffffffffffffffffffffffffffffffffffff160217905550816000908051906020019062000090929190620000b2565b508060019080519060200190620000a9929190620000b2565b50505062000161565b828054600181600116156101000203166002900490600052602060002090601f016020900481019282601f10620000f557805160ff191683800117855562000126565b8280016001018555821562000126579182015b828111156200012557825182559160200191906001019062000108565b5b50905062000135919062000139565b5090565b6200015e91905b808211156200015a57600081600090555060010162000140565b5090565b90565b61191b80620001716000396000f3006060604052600436106100fc576000357c0100000000000000000000000000000000000000000000000000000000900463ffffffff16806306fdde0314610101578063081812fc1461018f578063095ea7b3146101f25780631051db341461023457806318160ddd1461026157806323b872dd1461028a5780632f745c59146102eb57806333bebb77146103415780636352211e146103a25780636914db601461040557806370a08231146104a15780638da5cb5b146104ee57806395d89b4114610543578063a9059cbb146105d1578063af129dc214610613578063d0def5211461063c578063d63d4af0146106cc578063f2fde38b1461075a575b600080fd5b341561010c57600080fd5b610114610793565b6040518080602001828103825283818151815260200191508051906020019080838360005b83811015610154578082015181840152602081019050610139565b50505050905090810190601f1680156101815780820380516001836020036101000a031916815260200191505b509250505060405180910390f35b341561019a57600080fd5b6101b0600480803590602001909190505061083b565b604051808273ffffffffffffffffffffffffffffffffffffffff1673ffffffffffffffffffffffffffffffffffffffff16815260200191505060405180910390f35b34156101fd57600080fd5b610232600480803573ffffffffffffffffffffffffffffffffffffffff1690602001909190803590602001909190505061084d565b005b341561023f57600080fd5b6102476109fa565b604051808215151515815260200191505060405180910390f35b341561026c57600080fd5b610274610a03565b6040518082815260200191505060405180910390f35b341561029557600080fd5b6102e9600480803573ffffffffffffffffffffffffffffffffffffffff1690602001909190803573ffffffffffffffffffffffffffffffffffffffff16906020019091908035906020019091905050610a0d565b005b34156102f657600080fd5b61032b600480803573ffffffffffffffffffffffffffffffffffffffff16906020019091908035906020019091905050610bd8565b6040518082815260200191505060405180910390f35b341561034c57600080fd5b6103a0600480803573ffffffffffffffffffffffffffffffffffffffff1690602001909190803573ffffffffffffffffffffffffffffffffffffffff16906020019091908035906020019091905050610bec565b005b34156103ad57600080fd5b6103c36004808035906020019091905050610c58565b604051808273ffffffffffffffffffffffffffffffffffffffff1673ffffffffffffffffffffffffffffffffffffffff16815260200191505060405180910390f35b341561041057600080fd5b6104266004808035906020019091905050610c6a565b6040518080602001828103825283818151815260200191508051906020019080838360005b8381101561046657808201518184015260208101905061044b565b50505050905090810190601f1680156104935780820380516001836020036101000a031916815260200191505b509250505060405180910390f35b34156104ac57600080fd5b6104d8600480803573ffffffffffffffffffffffffffffffffffffffff16906020019091905050610d25565b6040518082815260200191505060405180910390f35b34156104f957600080fd5b610501610d71565b604051808273ffffffffffffffffffffffffffffffffffffffff1673ffffffffffffffffffffffffffffffffffffffff16815260200191505060405180910390f35b341561054e57600080fd5b610556610d97565b6040518080602001828103825283818151815260200191508051906020019080838360005b8381101561059657808201518184015260208101905061057b565b50505050905090810190601f1680156105c35780820380516001836020036101000a031916815260200191505b509250505060405180910390f35b34156105dc57600080fd5b610611600480803573ffffffffffffffffffffffffffffffffffffffff16906020019091908035906020019091905050610e3f565b005b341561061e57600080fd5b610626610fc7565b6040518082815260200191505060405180910390f35b341561064757600080fd5b6106b6600480803573ffffffffffffffffffffffffffffffffffffffff1690602001909190803590602001908201803590602001908080601f01602080910402602001604051908101604052809392919081815260200183838082843782019150505050505091905050610fcd565b6040518082815260200191505060405180910390f35b34156106d757600080fd5b610703600480803573ffffffffffffffffffffffffffffffffffffffff169060200190919050506110b9565b6040518080602001828103825283818151815260200191508051906020019060200280838360005b8381101561074657808201518184015260208101905061072b565b505050509050019250505060405180910390f35b341561076557600080fd5b610791600480803573ffffffffffffffffffffffffffffffffffffffff169060200190919050506110d1565b005b61079b6117ca565b60008054600181600116156101000203166002900480601f0160208091040260200160405190810160405280929190818152602001828054600181600116156101000203166002900480156108315780601f1061080657610100808354040283529160200191610831565b820191906000526020600020905b81548152906001019060200180831161081457829003601f168201915b5050505050905090565b600061084682611229565b9050919050565b80600073ffffffffffffffffffffffffffffffffffffffff1661086f82610c58565b73ffffffffffffffffffffffffffffffffffffffff161415151561089257600080fd5b61089b82610c58565b73ffffffffffffffffffffffffffffffffffffffff163373ffffffffffffffffffffffffffffffffffffffff161415156108d457600080fd5b8273ffffffffffffffffffffffffffffffffffffffff163373ffffffffffffffffffffffffffffffffffffffff161415151561090f57600080fd5b600073ffffffffffffffffffffffffffffffffffffffff1661093083611229565b73ffffffffffffffffffffffffffffffffffffffff161415806109805750600073ffffffffffffffffffffffffffffffffffffffff168373ffffffffffffffffffffffffffffffffffffffff1614155b156109f55761098f8383611266565b8273ffffffffffffffffffffffffffffffffffffffff163373ffffffffffffffffffffffffffffffffffffffff167f8c5be1e5ebec7d5bd14f71427d1e84f3dd0314c0f7b2291e5b200ac8c7c3b925846040518082815260200191505060405180910390a35b505050565b60006001905090565b6000600254905090565b80600073ffffffffffffffffffffffffffffffffffffffff16610a2f82610c58565b73ffffffffffffffffffffffffffffffffffffffff1614151515610a5257600080fd5b3373ffffffffffffffffffffffffffffffffffffffff16610a728361083b565b73ffffffffffffffffffffffffffffffffffffffff16141515610a9457600080fd5b8373ffffffffffffffffffffffffffffffffffffffff16610ab483610c58565b73ffffffffffffffffffffffffffffffffffffffff16141515610ad657600080fd5b600073ffffffffffffffffffffffffffffffffffffffff168373ffffffffffffffffffffffffffffffffffffffff1614151515610b1257600080fd5b610b1d8484846112bc565b60008473ffffffffffffffffffffffffffffffffffffffff167f8c5be1e5ebec7d5bd14f71427d1e84f3dd0314c0f7b2291e5b200ac8c7c3b925846040518082815260200191505060405180910390a38273ffffffffffffffffffffffffffffffffffffffff168473ffffffffffffffffffffffffffffffffffffffff167fddf252ad1be2c89b69c2b068fc378daa952ba7f163c4a11628f55a4df523b3ef846040518082815260200191505060405180910390a350505050565b6000610be483836112e8565b905092915050565b600860009054906101000a900473ffffffffffffffffffffffffffffffffffffffff1673ffffffffffffffffffffffffffffffffffffffff163373ffffffffffffffffffffffffffffffffffffffff16141515610c4857600080fd5b610c538383836112bc565b505050565b6000610c638261134a565b9050919050565b610c726117ca565b600560008381526020019081526020016000208054600181600116156101000203166002900480601f016020809104026020016040519081016040528092919081815260200182805460018160011615610100020316600290048015610d195780601f10610cee57610100808354040283529160200191610d19565b820191906000526020600020905b815481529060010190602001808311610cfc57829003601f168201915b50505050509050919050565b6000600660008373ffffffffffffffffffffffffffffffffffffffff1673ffffffffffffffffffffffffffffffffffffffff168152602001908152602001600020805490509050919050565b600860009054906101000a900473ffffffffffffffffffffffffffffffffffffffff1681565b610d9f6117ca565b60018054600181600116156101000203166002900480601f016020809104026020016040519081016040528092919081815260200182805460018160011615610100020316600290048015610e355780601f10610e0a57610100808354040283529160200191610e35565b820191906000526020600020905b815481529060010190602001808311610e1857829003601f168201915b5050505050905090565b80600073ffffffffffffffffffffffffffffffffffffffff16610e6182610c58565b73ffffffffffffffffffffffffffffffffffffffff1614151515610e8457600080fd5b3373ffffffffffffffffffffffffffffffffffffffff16610ea483610c58565b73ffffffffffffffffffffffffffffffffffffffff16141515610ec657600080fd5b600073ffffffffffffffffffffffffffffffffffffffff168373ffffffffffffffffffffffffffffffffffffffff1614151515610f0257600080fd5b610f0d3384846112bc565b60003373ffffffffffffffffffffffffffffffffffffffff167f8c5be1e5ebec7d5bd14f71427d1e84f3dd0314c0f7b2291e5b200ac8c7c3b925846040518082815260200191505060405180910390a38273ffffffffffffffffffffffffffffffffffffffff163373ffffffffffffffffffffffffffffffffffffffff167fddf252ad1be2c89b69c2b068fc378daa952ba7f163c4a11628f55a4df523b3ef846040518082815260200191505060405180910390a3505050565b60025481565b600080600860009054906101000a900473ffffffffffffffffffffffffffffffffffffffff1673ffffffffffffffffffffffffffffffffffffffff163373ffffffffffffffffffffffffffffffffffffffff1614151561102c57600080fd5b600254905061103b8185611387565b61104584826113dd565b61104f81846114a4565b61106560016002546114d090919063ffffffff16565b600281905550808473ffffffffffffffffffffffffffffffffffffffff167f0f6798a560793a54c3bcfe86a93cde1e73087d944c0ea20544137d412139688560405160405180910390a38091505092915050565b6110c16117de565b6110ca826114ee565b9050919050565b600860009054906101000a900473ffffffffffffffffffffffffffffffffffffffff1673ffffffffffffffffffffffffffffffffffffffff163373ffffffffffffffffffffffffffffffffffffffff1614151561112d57600080fd5b600073ffffffffffffffffffffffffffffffffffffffff168173ffffffffffffffffffffffffffffffffffffffff161415151561116957600080fd5b8073ffffffffffffffffffffffffffffffffffffffff16600860009054906101000a900473ffffffffffffffffffffffffffffffffffffffff1673ffffffffffffffffffffffffffffffffffffffff167f8be0079c531659141344cd1fd0a4f28419497f9722a3daafe3b4186f6b6457e060405160405180910390a380600860006101000a81548173ffffffffffffffffffffffffffffffffffffffff021916908373ffffffffffffffffffffffffffffffffffffffff16021790555050565b60006004600083815260200190815260200160002060009054906101000a900473ffffffffffffffffffffffffffffffffffffffff169050919050565b816004600083815260200190815260200160002060006101000a81548173ffffffffffffffffffffffffffffffffffffffff021916908373ffffffffffffffffffffffffffffffffffffffff1602179055505050565b6112c58161158b565b6112cf83826115e1565b6112d98183611387565b6112e382826113dd565b505050565b6000600660008473ffffffffffffffffffffffffffffffffffffffff1673ffffffffffffffffffffffffffffffffffffffff1681526020019081526020016000208281548110151561133657fe5b906000526020600020900154905092915050565b60006003600083815260200190815260200160002060009054906101000a900473ffffffffffffffffffffffffffffffffffffffff169050919050565b806003600084815260200190815260200160002060006101000a81548173ffffffffffffffffffffffffffffffffffffffff021916908373ffffffffffffffffffffffffffffffffffffffff1602179055505050565b600660008373ffffffffffffffffffffffffffffffffffffffff1673ffffffffffffffffffffffffffffffffffffffff168152602001908152602001600020805480600101828161142e91906117f2565b9160005260206000209001600083909190915055506001600660008473ffffffffffffffffffffffffffffffffffffffff1673ffffffffffffffffffffffffffffffffffffffff168152602001908152602001600020805490500360076000838152602001908152602001600020819055505050565b806005600084815260200190815260200160002090805190602001906114cb92919061181e565b505050565b60008082840190508381101515156114e457fe5b8091505092915050565b6114f66117de565b600660008373ffffffffffffffffffffffffffffffffffffffff1673ffffffffffffffffffffffffffffffffffffffff16815260200190815260200160002080548060200260200160405190810160405280929190818152602001828054801561157f57602002820191906000526020600020905b81548152602001906001019080831161156b575b50505050509050919050565b60006004600083815260200190815260200160002060006101000a81548173ffffffffffffffffffffffffffffffffffffffff021916908373ffffffffffffffffffffffffffffffffffffffff16021790555050565b6000806000600660008673ffffffffffffffffffffffffffffffffffffffff1673ffffffffffffffffffffffffffffffffffffffff16815260200190815260200160002080549050925060076000858152602001908152602001600020549150600660008673ffffffffffffffffffffffffffffffffffffffff1673ffffffffffffffffffffffffffffffffffffffff1681526020019081526020016000206001840381548110151561169057fe5b906000526020600020900154905080600660008773ffffffffffffffffffffffffffffffffffffffff1673ffffffffffffffffffffffffffffffffffffffff168152602001908152602001600020838154811015156116eb57fe5b906000526020600020900181905550816007600083815260200190815260200160002081905550600660008673ffffffffffffffffffffffffffffffffffffffff1673ffffffffffffffffffffffffffffffffffffffff1681526020019081526020016000206001840381548110151561176157fe5b906000526020600020900160009055600660008673ffffffffffffffffffffffffffffffffffffffff1673ffffffffffffffffffffffffffffffffffffffff1681526020019081526020016000208054809190600190036117c2919061189e565b505050505050565b602060405190810160405280600081525090565b602060405190810160405280600081525090565b8154818355818115116118195781836000526020600020918201910161181891906118ca565b5b505050565b828054600181600116156101000203166002900490600052602060002090601f016020900481019282601f1061185f57805160ff191683800117855561188d565b8280016001018555821561188d579182015b8281111561188c578251825591602001919060010190611871565b5b50905061189a91906118ca565b5090565b8154818355818115116118c5578183600052602060002091820191016118c491906118ca565b5b505050565b6118ec91905b808211156118e85760008160009055506001016118d0565b5090565b905600a165627a7a723058206c8ac49e1d0e29373c4586700a16b3e039a2db2cba3788391a9c99fa14edf1ed0029",
  "source": "pragma solidity ^0.4.18;\n\nimport \"./CharityToken.sol\";\nimport \"zeppelin-solidity/contracts/math/SafeMath.sol\";\n\ncontract GiftChallenge {\n    using SafeMath for uint;\n\n    struct Gift {\n        bool isGift;\n        string confirmation;\n        address servant;\n        uint tokenId;\n        uint lastPayment;\n    }\n\n    mapping(string => Gift) gifts;\n\n    CharityToken public token;\n\n    function GiftChallenge() {\n        token = createToken();\n    }\n\n    function() payable {\n        throw;\n    }\n\n    function createToken(address _servant, string _link) public {\n        require(_servant != address(0));\n\n        Gift item = gifts[_link];\n\n        require(item.isGift == false);\n\n        uint tokenId = token.mint(_servant, _link);\n\n        item.tokenId = tokenId;\n        item.confirmation = _link;\n        item.servant = _servant;\n        item.isGift = true;\n\n        TokenCreated(_servant, _link, tokenId);\n    }\n\n    function test(address receiver) public {\n\n    }\n\n    function buyToken(string _link) external payable {\n        Gift memory item = gifts[_link];\n\n        require(msg.value >= item.lastPayment.mul(2));\n\n        address owner = token.ownerOf(item.tokenId);\n        address servant = item.servant;\n\n        uint half = msg.value / 2;\n\n        owner.transfer(half);\n        servant.transfer(msg.value - half);\n\n        token.forceTransfer(owner, msg.sender, item.tokenId);\n\n        gifts[_link].lastPayment = msg.value;\n\n        TokenBought(item.tokenId, owner, msg.sender, item.lastPayment, msg.value);\n    }\n\n    function getPrice(string _link) public constant returns(uint) {\n        return gifts[_link].lastPayment;\n    }\n\n    function getServant(string _link) public constant returns(address) {\n        return gifts[_link].servant;\n    }\n\n    function getToken(string _link) public constant returns(uint) {\n        return gifts[_link].tokenId;\n    }\n\n    function getOwner(string _link) public constant returns(address) {\n        uint tokenId = gifts[_link].tokenId;\n        address owner = token.ownerOf(tokenId);\n        return owner;\n    }\n\n    function createToken() internal returns(CharityToken _token) {\n        return new CharityToken(\"Gift Challenge Token\", \"GIFT\");\n    }\n\n    event TokenCreated(address indexed _servant, string _link, uint indexed _token);\n    event TokenBought(uint indexed _token, address indexed _previousOwner, address indexed _newOwner, uint _previousPrice, uint _newPrice);\n}",
  "sourcePath": "/home/sevenflash/apps/blockchain/devchain/dapp/giftsite/contracts/GiftChallenge.sol",
  "compiler": {
    "name": "solc",
    "version": "0.4.18+commit.9cf6e910.Emscripten.clang"
  },
  "schemaVersion": "1.0.1",
  "updatedAt": "2018-01-02T19:49:04.169Z"
}